:020000000F28C7
:10000800DE00030E8312A5000408A6000A08A70054
:100018005F08A800892910289A21B6009B21B700FB
:100028009C21B8009D21B9009E21BA009F21BB00E8
:10003800A021BC00A121BD00A221BE00A321BF00B8
:10004800A421C000A521C100A621C200A721C30088
:100058008313443084005130B421830107293328A5
:10006800DF0000308A005F0882073928FA29F6295C
:10007800F229EE29E83083128F00BE308E0001305D
:10008800CB070318CC0A0030CC074F0803194D28BA
:100098004F28013050280030A0002008CF004D081C
:1000A800A0002008CE064D0803195B285D28013002
:1000B8005E280030A0002008CD005008A0000230C3
:1000C8000310A00DFF3E031D642836302007A10051
:1000D8004F08A20022072107A3004E082307A40007
:1000E80024088400831300083420831243084C0634
:1000F800031D802842084B06031D83288428862870
:100108001010DB2108008312500803198C288D2851
:10011800A0284B084902A9004C08031C4C0A4A02B3
:10012800AA00C321831249084002C2004A08031CDE
:100138004A0A4102C300C3284B084907A9004C08D2
:1001480003184C0A4A07AA00C32183123F08803AC1
:10015800AB004A08803A2B02031DB42849083E0226
:100168000318B728B828BE2883123F08C3003E08E2
:10017800C200C32883124A08C3004908C200CB0141
:10018800CC01101408008312AA008512B430A9000B
:10019800CD28A90BCC28D028D1288312AB012A0856
:1001A800A9002B0AD9280310A90CFF3E031DD72844
:1001B8002918DF28E22883128516E428831285127D
:1001C800B430A900E728A90BE628EA28EB28013073
:1001D8008312A9002908AB0708302B02031CF52855
:1001E800F628D3288516B430A900FA28A90BF928CF
:1001F800FD28FE28B4308312A9000229A90B012981
:10020800052906290800BC21EA21CF21A821D521EA
:10021800E121C9210B308312B5002630B4005D30CE
:10022800B300B30B1529B40B1529B50B15291C29D7
:10023800E62100308312851901305006031925295B
:1002480026292B29003085190130D000872001305C
:100258005A2183124C08AD004B08AC0040210F30E6
:100268005A2107308312B4007D30B300B30B3A290A
:10027800B40B3A291D290F2800308312AF00003033
:10028800B0000030B100B20132082F3E8400831361
:100298000008C72001308312AE002E08B2070330D1
:1002A8003202031C58295929482908008312AE0034
:1002B800AD0168292D082E0784007221C72001305E
:1002C8008312AC002C08AD072D082E07840072217C
:1002D800003A031D702971295E29080001308A003F
:1002E8000408840A820700344F3446345F346E347D
:1002F80075346D345F3454344D34523431343A34B7
:100308002034003420340A3400340C1C8C298D2904
:1003180090293E2083120C10280827088A002608F6
:100328008400250E8300DE0E5E0E090002340334BD
:10033800013404340434013403340234F434013411
:100348000C3403340134003483121013CF30900579
:10035800901190101010E8308F00BE308E00080009
:1003680064008001840A0406031900340406B529D0
:1003780083168515051085100511051208008312CE
:100388002A08CA002908C900080083120510851028
:100398000511051208008B170B178B1283160C1406
:1003A800080083121F10F03083169F05080083127F
:1003B8000510851005110512080083168512831291
:1003C800851608008312C901CA0108000730831284
:1003D800990408008312051005150800831285107A
:1003E80005160800831285140512080083120514E7
:0403F80005110800E3
:08400000FF3FFF3FFF3FFF3FC0
:02400E00C431BB
:00000001FF
