:020000000F28C7
:10000800DE00030E8312A7000408A8000A08A9004E
:100018005F08AA00BA291028CB21B400CC21B5006A
:10002800CD21B600CE21B700CF21B800D021B9002C
:10003800D121BA00D221BB00D321BC00D421BD00FC
:10004800D521BE00D621BF00D721C000D821C100CC
:10005800C201C301C401C501C601C701C801C90164
:10006800830159293628DF0000308A005F0882079B
:100078003C28232A1F2A1B2A172A83128512B430E8
:10008800AD004628AD0B452849284A280830831278
:10009800B000300AAD002C08AF002B08AE0057287E
:1000A8002F0DAF0CAE0CAD0B542883122E185D2803
:1000B800602883128516622883128512B430AD0039
:1000C8006528AD0B64286828692801308312AD00C3
:1000D8002D08B00710303002031C732874284D28EF
:1000E8008516B430AD007828AD0B77287B287C289E
:1000F800B4308312AD008028AD0B7F288328842874
:1001080083128512B430AD008928AD0B88288C285D
:100118008D288312B001300AAD002C08AF002B08DF
:10012800AE0099282F0DAF0CAE0CAD0B962883129C
:100138002E189F28A22883128516A42883128512B8
:10014800B430AD00A728AD0BA628AA28AB280130EB
:100158008312AD002D08B00708303002031CB52803
:10016800B6288F288516B430AD00BA28AD0BB9284B
:10017800BD28BE28B4308312AD00C228AD0BC128FB
:10018800C528C6280800E83083128F00BE308E00CC
:100198000130C4070318C50A0030C5074808031909
:1001A800D628D8280130D9280030C8004608A2002F
:1001B8002208C70646080319E228E4280130E52882
:1001C8000030C6004908A20002300310A20DFF3E0D
:1001D800031DE92834302207A3004808A400240797
:1001E8002307A50047082507A600260884008313CF
:1001F80000083720831241084506031D05294008D9
:100208004406031D082909291F291010FE218312FD
:1002180049080319102911291B2944084207A0007D
:1002280045080318450A4307A10004221F29003086
:10023800A000A1000422080001308A000408840AF2
:1002480082070034633475347234723465346E3422
:1002580074345F3470346F3473346934743469348B
:100268006F346E343A342034003474346134723468
:100278006734653474345F344F3446345F346E34D5
:1002880075346D343A34203400344F3446345F3496
:100298006E3475346D345F3454344D3452343134E3
:1002A8003A34203400340A340034E5211322F22190
:1002B800D921F8210A22EC210B308312B300263011
:1002C800B2005D30B100B10B6729B20B6729B30BDF
:1002D80067296E290F2200308312851901304906DB
:1002E8000319772978297D29003085190130C9003B
:1002F8008E2183124308AC004208AB00412007302E
:100308008312B2007D30B100B10B8829B20B882965
:100318006F290F28831249080319932994299D29C5
:1003280042083E02C0004308031C430A3F02C100C2
:10033800B6293D08803AAB004308803A2B02031DDA
:10034800A72942083C020318AA29AB29B12983121C
:100358003D08C1003C08C000B62983124308C1000B
:100368004208C000C401C501101408000C1CBD29B6
:10037800BE29C129C72083120C102A0829088A001F
:1003880028088400270E8300DE0E5E0E0900023462
:1003980003340134043404340134033402343A3469
:1003A80002340C3403340134003483121013CF3078
:1003B8009005901190101010E8308F00BE308E001C
:1003C800080083168515051085100511051208000B
:1003D8008312051085100511051208008B170B17DD
:1003E8008B1283160C14080083121F10F03083162A
:1003F8009F050800831205108510051105120800D5
:1004080083122108C3002008C20008008316851241
:100418008312851608008312C201C3010800073041
:100428008312990408008312051005150800831229
:10043800851005160800831285140512080083121A
:0604480005140511080077
:08400000FF3FFF3FFF3FFF3FC0
:02400E00C431BB
:00000001FF
